{
  "contractName": "FStorage",
  "abi": [
    {
      "inputs": [],
      "stateMutability": "nonpayable",
      "type": "constructor"
    },
    {
      "anonymous": false,
      "inputs": [
        {
          "indexed": false,
          "internalType": "uint256",
          "name": "fileId",
          "type": "uint256"
        },
        {
          "indexed": false,
          "internalType": "string",
          "name": "fileHash",
          "type": "string"
        },
        {
          "indexed": false,
          "internalType": "uint256",
          "name": "fileSize",
          "type": "uint256"
        },
        {
          "indexed": false,
          "internalType": "string",
          "name": "fileType",
          "type": "string"
        },
        {
          "indexed": false,
          "internalType": "string",
          "name": "fileName",
          "type": "string"
        },
        {
          "indexed": false,
          "internalType": "string",
          "name": "fileDescription",
          "type": "string"
        },
        {
          "indexed": false,
          "internalType": "uint256",
          "name": "uploadTime",
          "type": "uint256"
        },
        {
          "indexed": false,
          "internalType": "address payable",
          "name": "uploader",
          "type": "address"
        }
      ],
      "name": "FileUploaded",
      "type": "event"
    },
    {
      "inputs": [],
      "name": "fileCount",
      "outputs": [
        {
          "internalType": "uint256",
          "name": "",
          "type": "uint256"
        }
      ],
      "stateMutability": "view",
      "type": "function",
      "constant": true
    },
    {
      "inputs": [
        {
          "internalType": "uint256",
          "name": "",
          "type": "uint256"
        }
      ],
      "name": "files",
      "outputs": [
        {
          "internalType": "uint256",
          "name": "fileId",
          "type": "uint256"
        },
        {
          "internalType": "string",
          "name": "fileHash",
          "type": "string"
        },
        {
          "internalType": "uint256",
          "name": "fileSize",
          "type": "uint256"
        },
        {
          "internalType": "string",
          "name": "fileType",
          "type": "string"
        },
        {
          "internalType": "string",
          "name": "fileName",
          "type": "string"
        },
        {
          "internalType": "string",
          "name": "fileDescription",
          "type": "string"
        },
        {
          "internalType": "uint256",
          "name": "uploadTime",
          "type": "uint256"
        },
        {
          "internalType": "address payable",
          "name": "uploader",
          "type": "address"
        }
      ],
      "stateMutability": "view",
      "type": "function",
      "constant": true
    },
    {
      "inputs": [],
      "name": "name",
      "outputs": [
        {
          "internalType": "string",
          "name": "",
          "type": "string"
        }
      ],
      "stateMutability": "view",
      "type": "function",
      "constant": true
    },
    {
      "inputs": [
        {
          "internalType": "string",
          "name": "_fHash",
          "type": "string"
        },
        {
          "internalType": "uint256",
          "name": "_fSize",
          "type": "uint256"
        },
        {
          "internalType": "string",
          "name": "_fType",
          "type": "string"
        },
        {
          "internalType": "string",
          "name": "_fName",
          "type": "string"
        },
        {
          "internalType": "string",
          "name": "_fDescription",
          "type": "string"
        }
      ],
      "name": "uploadFile",
      "outputs": [],
      "stateMutability": "nonpayable",
      "type": "function"
    }
  ],
  "bytecode": "0x60806040526040518060400160405280600881526020017f4653746f7261676500000000000000000000000000000000000000000000000081525060009080519060200190620000519291906200006b565b5060006001553480156200006457600080fd5b5062000180565b82805462000079906200011b565b90600052602060002090601f0160209004810192826200009d5760008555620000e9565b82601f10620000b857805160ff1916838001178555620000e9565b82800160010185558215620000e9579182015b82811115620000e8578251825591602001919060010190620000cb565b5b509050620000f89190620000fc565b5090565b5b8082111562000117576000816000905550600101620000fd565b5090565b600060028204905060018216806200013457607f821691505b602082108114156200014b576200014a62000151565b5b50919050565b7f4e487b7100000000000000000000000000000000000000000000000000000000600052602260045260246000fd5b610c2d80620001906000396000f3fe608060405234801561001057600080fd5b506004361061004c5760003560e01c806306fdde0314610051578063439535191461006f578063e82d9d331461008d578063f4c714b4146100a9575b600080fd5b6100596100e0565b60405161006691906108bb565b60405180910390f35b61007761016e565b60405161008491906108dd565b60405180910390f35b6100a760048036038101906100a2919061074c565b610174565b005b6100c360048036038101906100be9190610837565b61039c565b6040516100d79897969594939291906108f8565b60405180910390f35b600080546100ed90610a82565b80601f016020809104026020016040519081016040528092919081815260200182805461011990610a82565b80156101665780601f1061013b57610100808354040283529160200191610166565b820191906000526020600020905b81548152906001019060200180831161014957829003601f168201915b505050505081565b60015481565b600085511161018257600080fd5b600083511161019057600080fd5b600081511161019e57600080fd5b60008251116101ac57600080fd5b600073ffffffffffffffffffffffffffffffffffffffff163373ffffffffffffffffffffffffffffffffffffffff1614156101e657600080fd5b600084116101f357600080fd5b6001600081548092919061020690610ae5565b919050555060405180610100016040528060015481526020018681526020018581526020018481526020018381526020018281526020014281526020013373ffffffffffffffffffffffffffffffffffffffff16815250600260006001548152602001908152602001600020600082015181600001556020820151816001019080519060200190610298929190610624565b506040820151816002015560608201518160030190805190602001906102bf929190610624565b5060808201518160040190805190602001906102dc929190610624565b5060a08201518160050190805190602001906102f9929190610624565b5060c0820151816006015560e08201518160070160006101000a81548173ffffffffffffffffffffffffffffffffffffffff021916908373ffffffffffffffffffffffffffffffffffffffff1602179055509050507f6e95bbaa37a5fdec42a312e049dea2fe6160ebe659214d3409b4f91f164c2f526001548686868686423360405161038d9897969594939291906108f8565b60405180910390a15050505050565b60026020528060005260406000206000915090508060000154908060010180546103c590610a82565b80601f01602080910402602001604051908101604052809291908181526020018280546103f190610a82565b801561043e5780601f106104135761010080835404028352916020019161043e565b820191906000526020600020905b81548152906001019060200180831161042157829003601f168201915b50505050509080600201549080600301805461045990610a82565b80601f016020809104026020016040519081016040528092919081815260200182805461048590610a82565b80156104d25780601f106104a7576101008083540402835291602001916104d2565b820191906000526020600020905b8154815290600101906020018083116104b557829003601f168201915b5050505050908060040180546104e790610a82565b80601f016020809104026020016040519081016040528092919081815260200182805461051390610a82565b80156105605780601f1061053557610100808354040283529160200191610560565b820191906000526020600020905b81548152906001019060200180831161054357829003601f168201915b50505050509080600501805461057590610a82565b80601f01602080910402602001604051908101604052809291908181526020018280546105a190610a82565b80156105ee5780601f106105c3576101008083540402835291602001916105ee565b820191906000526020600020905b8154815290600101906020018083116105d157829003601f168201915b5050505050908060060154908060070160009054906101000a900473ffffffffffffffffffffffffffffffffffffffff16905088565b82805461063090610a82565b90600052602060002090601f0160209004810192826106525760008555610699565b82601f1061066b57805160ff1916838001178555610699565b82800160010185558215610699579182015b8281111561069857825182559160200191906001019061067d565b5b5090506106a691906106aa565b5090565b5b808211156106c35760008160009055506001016106ab565b5090565b60006106da6106d5846109b7565b610992565b9050828152602081018484840111156106f6576106f5610bc0565b5b610701848285610a40565b509392505050565b600082601f83011261071e5761071d610bbb565b5b813561072e8482602086016106c7565b91505092915050565b60008135905061074681610be0565b92915050565b600080600080600060a0868803121561076857610767610bca565b5b600086013567ffffffffffffffff81111561078657610785610bc5565b5b61079288828901610709565b95505060206107a388828901610737565b945050604086013567ffffffffffffffff8111156107c4576107c3610bc5565b5b6107d088828901610709565b935050606086013567ffffffffffffffff8111156107f1576107f0610bc5565b5b6107fd88828901610709565b925050608086013567ffffffffffffffff81111561081e5761081d610bc5565b5b61082a88828901610709565b9150509295509295909350565b60006020828403121561084d5761084c610bca565b5b600061085b84828501610737565b91505092915050565b61086d81610a04565b82525050565b600061087e826109e8565b61088881856109f3565b9350610898818560208601610a4f565b6108a181610bcf565b840191505092915050565b6108b581610a36565b82525050565b600060208201905081810360008301526108d58184610873565b905092915050565b60006020820190506108f260008301846108ac565b92915050565b60006101008201905061090e600083018b6108ac565b8181036020830152610920818a610873565b905061092f60408301896108ac565b81810360608301526109418188610873565b905081810360808301526109558187610873565b905081810360a08301526109698186610873565b905061097860c08301856108ac565b61098560e0830184610864565b9998505050505050505050565b600061099c6109ad565b90506109a88282610ab4565b919050565b6000604051905090565b600067ffffffffffffffff8211156109d2576109d1610b8c565b5b6109db82610bcf565b9050602081019050919050565b600081519050919050565b600082825260208201905092915050565b6000610a0f82610a16565b9050919050565b600073ffffffffffffffffffffffffffffffffffffffff82169050919050565b6000819050919050565b82818337600083830152505050565b60005b83811015610a6d578082015181840152602081019050610a52565b83811115610a7c576000848401525b50505050565b60006002820490506001821680610a9a57607f821691505b60208210811415610aae57610aad610b5d565b5b50919050565b610abd82610bcf565b810181811067ffffffffffffffff82111715610adc57610adb610b8c565b5b80604052505050565b6000610af082610a36565b91507fffffffffffffffffffffffffffffffffffffffffffffffffffffffffffffffff821415610b2357610b22610b2e565b5b600182019050919050565b7f4e487b7100000000000000000000000000000000000000000000000000000000600052601160045260246000fd5b7f4e487b7100000000000000000000000000000000000000000000000000000000600052602260045260246000fd5b7f4e487b7100000000000000000000000000000000000000000000000000000000600052604160045260246000fd5b600080fd5b600080fd5b600080fd5b600080fd5b6000601f19601f8301169050919050565b610be981610a36565b8114610bf457600080fd5b5056fea26469706673582212208e4b3305f758cddff1985f6b4a08662e1532448be5e33526d84dd04e2a00785564736f6c63430008070033",
  "immutableReferences": {},
  "source": "// SPDX-License-Identifier: MIT\npragma solidity ^0.8.7;\n\ncontract FStorage {\n  // NAME OF CONTRACT\n  string public name = \"FStorage\";\n  \n  // #FILES \n  uint public fileCount = 0;\n  \n  // MAPPING fieldId=>Struct \n  mapping(uint => File) public files;\n  \n  // FILE ATTRIBUTES\n  struct File {\n    uint fileId;\n    string fileHash;\n    uint fileSize;\n    string fileType;\n    string fileName;\n    string fileDescription;\n    uint uploadTime;\n    address payable uploader;\n  }\n\n  // FILE EVENTS\n  event FileUploaded(\n    uint fileId,\n    string fileHash,\n    uint fileSize,\n    string fileType,\n    string fileName,\n    string fileDescription,\n    uint uploadTime,\n    address payable uploader\n    \n  );\n\n  constructor() public {}\n\n\n  // MODEL FILE FORMAT\n  // file[number] = File(\n  //   1,\n  //   \"0x123456789\",\n  //   100,\n  //   \"image/png\",\n  //   \"test.png\",\n  //   \"test file\",\n  //   1564654645/timestamp,\n  //   0x123456789/msg.sender\n  // );\n\n\n  // UPLOAD FILE\n  function uploadFile(\n    string memory _fHash,\n    uint _fSize,\n    string memory _fType,\n    string memory _fName,\n    string memory _fDescription\n  ) public {\n    \n    // -------BASIC VALIDATIONS-------\n    // -HASH REQUIRED\n        require(bytes(_fHash).length > 0);\n\n    // -TYPE REQUIRED\n        require(bytes(_fType).length > 0);\n\n    // -DESCRIPTION REQUIRED\n        require(bytes(_fDescription).length > 0);\n\n    // -NAME REQUIRED        \n        require(bytes(_fName).length > 0);\n\n    // -UPLOADER ADDRESS REQUIRED\n        require(msg.sender!=address(0));\n\n    // -NON-ZERO SIZE          \n        require(_fSize > 0);             \n\n    fileCount++;\n    files[fileCount] = File(\n                          fileCount,\n                          _fHash,\n                          _fSize,\n                          _fType,\n                          _fName,\n                          _fDescription,\n                          block.timestamp,\n                          payable(msg.sender)\n                        );\n\n    // TRIGGER EVENTS\n    emit FileUploaded(\n      fileCount,\n      _fHash,\n      _fSize,\n      _fType,\n      _fName,\n      _fDescription,\n      block.timestamp,\n      payable(msg.sender)\n    );\n  }\n}",
  "sourcePath": "/home/shovik/Downloads/decentralised-dropbox/src/contracts/FStorage.sol",
  "compiler": {
    "name": "solc",
    "version": "0.8.7+commit.e28d00a7.Emscripten.clang"
  },
  "schemaVersion": "3.4.8",
  "updatedAt": "2022-07-11T19:11:36.302Z",
  "networkType": "ethereum",
  "devdoc": {
    "kind": "dev",
    "methods": {},
    "version": 1
  },
  "userdoc": {
    "kind": "user",
    "methods": {},
    "version": 1
  }
}